S01800004C454420737175656E63652056312E302E737265631E
S11300000C942A000C9434000C9434000C943400A6
S11300100C9434000C9434000C9434000C9434008C
S11300200C9434000C9434000C9434000C9434007C
S11300300C9434000C9434000C9434000C9434006C
S11300400C9434000C9434000C9434000C9434005C
S11300500C94340011241FBECFE5D8E0DEBFCDBF21
S11300600E9451000C94C0020C94000041E00E94D4
S11300705401811181E0089541E00E94CF01811172
S113008081E0089540E00E94CF01811181E008954C
S113009040E00E94540108950E944A02811181E0C7
S11300A00895CF93DF931F92CDB7DEB760E081E46C
S11300B00E94360061E081E40E94360062E081E43F
S11300C00E94360063E081E40E94360060E084E42C
S11300D00E9448001982AE014F5F5F4F60E084E4E4
S11300E00E944C0089818130A9F760E081E40E947C
S11300F03C0007C0AE014F5F5F4F60E084E40E94A4
S11301004C0089818130B1F307C0AE014F5F5F4F6E
S113011060E084E40E944C0089818823B1F381303B
S113012061F461E081E40E943C0007C0AE014F5FCE
S11301305F4F60E084E40E944C0089818130B1F318
S113014007C0AE014F5F5F4F60E084E40E944C0043
S113015089818823B1F3813061F462E081E40E94F3
S11301603C0007C0AE014F5F5F4F60E084E40E9433
S11301704C0089818130B1F307C0AE014F5F5F4FFE
S113018060E084E40E944C0089818823B1F38130CB
S113019061F463E081E40E943C0007C0AE014F5F5C
S11301A05F4F60E084E40E944C0089818130B1F3A8
S11301B007C0AE014F5F5F4F60E084E40E944C00D3
S11301C089818823B1F3813061F460E081E40E9485
S11301D0420007C0AE014F5F5F4F60E084E40E94BD
S11301E04C0089818130B1F307C0AE014F5F5F4F8E
S11301F060E084E40E944C0089818823B1F381305B
S113020061F461E081E40E94420007C0AE014F5FE7
S11302105F4F60E084E40E944C0089818130B1F337
S113022007C0AE014F5F5F4F60E084E40E944C0062
S113023089818823B1F3813061F462E081E40E9412
S1130240420007C0AE014F5F5F4F60E084E40E944C
S11302504C0089818130B1F307C0AE014F5F5F4F1D
S113026060E084E40E944C0089818823B1F38130EA
S113027061F463E081E40E94420007C0AE014F5F75
S11302805F4F60E084E40E944C0089818130B1F3C7
S113029007C0AE014F5F5F4F60E084E40E944C00F2
S11302A089818823B1F316CF823431F118F4813473
S11302B039F073C08334E1F1843409F454C06DC05F
S11302C041110CC02AB381E090E002C0880F991F4D
S11302D06A95E2F7809582238ABB5FC0413009F0BA
S11302E05CC02AB381E090E002C0880F991F6A9530
S11302F0E2F7822B8ABB51C041110CC027B381E0C5
S113030090E002C0880F991F6A95E2F780958223D6
S113031087BB43C0413009F040C027B381E090E07F
S113032002C0880F991F6A95E2F7822B87BB35C0FC
S113033041110CC024B381E090E002C0880F991FE2
S11303406A95E2F78095822384BB27C0413029F562
S113035024B381E090E002C0880F991F6A95E2F708
S1130360822B84BB1AC041110CC021B381E090E000
S113037002C0880F991F6A95E2F78095822381BB9A
S11303800CC0413051F421B381E090E002C0880FE9
S1130390991F6A95E2F7822B81BB80E0089582342D
S11303A031F118F4813439F073C08334E1F18434C9
S11303B009F454C06DC041110CC02BB381E090E02E
S11303C002C0880F991F6A95E2F7809582238BBB40
S11303D05FC0413009F05CC02BB381E090E002C003
S11303E0880F991F6A95E2F7822B8BBB51C041118C
S11303F00CC028B381E090E002C0880F991F6A9571
S1130400E2F78095822388BB43C0413009F040C0A5
S113041028B381E090E002C0880F991F6A95E2F743
S1130420822B88BB35C041110CC025B381E090E01C
S113043002C0880F991F6A95E2F78095822385BBD5
S113044027C0413029F525B381E090E002C0880F30
S1130450991F6A95E2F7822B85BB1AC041110CC023
S113046022B381E090E002C0880F991F6A95E2F7F9
S11304708095822382BB0CC0413051F422B381E0C9
S113048090E002C0880F991F6A95E2F7822B82BB25
S113049080E00895823421F118F4813439F06EC07B
S11304A08334C1F1843409F44FC068C02BB381E0B4
S11304B090E0062E02C0880F991F0A94E2F7382FA5
S11304C0309523232BBB29B330E08223932302C02E
S11304D0959587956A95E2F7FA01808380E00895FF
S11304E028B381E090E0062E02C0880F991F0A9479
S11304F0E2F7382F3095232328BB26B330E082233C
S1130500932302C0959587956A95E2F7FA01808353
S113051080E0089525B381E090E0062E02C0880FA4
S1130520991F0A94E2F7382F3095232325BB23B370
S113053030E08223932302C0959587956A95E2F76C
S1130540FA01808380E0089522B381E090E0062ED2
S113055002C0880F991F0A94E2F7382F309523239D
S113056022BB20B330E08223932302C09595879564
S11305706A95E2F7FA01808380E0089581E00895A6
S1070580F894FFCF19
S9030000FC
