:100000000C942A000C9434000C9434000C943400AA
:100010000C9434000C9434000C9434000C94340090
:100020000C9434000C9434000C9434000C94340080
:100030000C9434000C9434000C9434000C94340070
:100040000C9434000C9434000C9434000C94340060
:100050000C94340011241FBECFE5D8E0DEBFCDBF25
:100060000E9459010C94B6020C94000060E081E4F7
:100070000E943E0161E081E40E943E0162E081E471
:100080000E943E0163E081E40E943E0160E084E45E
:100090000E9450010895CF93DF931F92CDB7DEB732
:1000A0001982AE014F5F5F4F60E084E40E9454010B
:1000B0008981813009F0DEC060E081E40E94440162
:1000C00007C0AE014F5F5F4F60E084E40E945401BF
:1000D00089818130B1F307C0AE014F5F5F4F60E0AF
:1000E00084E40E94540189818823B1F3813061F452
:1000F00061E081E40E94440107C0AE014F5F5F4FA1
:1001000060E084E40E94540189818130B1F307C02A
:10011000AE014F5F5F4F60E084E40E94540189812B
:100120008823B1F3813061F462E081E40E944401EC
:1001300007C0AE014F5F5F4F60E084E40E9454014E
:1001400089818130B1F307C0AE014F5F5F4F60E03E
:1001500084E40E94540189818823B1F3813061F4E1
:1001600063E081E40E94440107C0AE014F5F5F4F2E
:1001700060E084E40E94540189818130B1F307C0BA
:10018000AE014F5F5F4F60E084E40E9454018981BB
:100190008823B1F3813061F460E081E40E944A0178
:1001A00007C0AE014F5F5F4F60E084E40E945401DE
:1001B00089818130B1F307C0AE014F5F5F4F60E0CE
:1001C00084E40E94540189818823B1F3813061F471
:1001D00061E081E40E944A0107C0AE014F5F5F4FBA
:1001E00060E084E40E94540189818130B1F307C04A
:1001F000AE014F5F5F4F60E084E40E94540189814B
:100200008823B1F3813061F462E081E40E944A0105
:1002100007C0AE014F5F5F4F60E084E40E9454016D
:1002200089818130B1F307C0AE014F5F5F4F60E05D
:1002300084E40E94540189818823B1F3813061F400
:1002400063E081E40E944A0107C0AE014F5F5F4F47
:1002500060E084E40E94540189818130B1F307C0D9
:10026000AE014F5F5F4F60E084E40E9454018981DA
:100270008823B1F30F90DF91CF91089541E00E9460
:100280005E01811181E0089541E00E94CF0181115A
:1002900081E0089540E00E94CF01811181E008953E
:1002A00040E00E945E0108950E944002811181E0B9
:1002B00008950E9436000E944B00FDCF823419F150
:1002C00018F4813439F069C08334B1F1843409F40D
:1002D0004CC063C041110CC02AB381E090E002C061
:1002E000880F991F6A95E2F7809582238ABB55C0D3
:1002F0002AB381E090E002C0880F991F6A95E2F767
:10030000822B8ABB4AC041110CC027B381E090E028
:1003100002C0880F991F6A95E2F78095822387BBF8
:100320003CC027B381E090E002C0880F991F6A9516
:10033000E2F7822B87BB31C041110CC024B381E0AE
:1003400090E002C0880F991F6A95E2F7809582239A
:1003500084BB23C024B381E090E002C0880F991FC2
:100360006A95E2F7822B84BB18C041110CC021B3FF
:1003700081E090E002C0880F991F6A95E2F78095AE
:10038000822381BB0AC021B381E090E002C0880FC4
:10039000991F6A95E2F7822B81BB80E00895823431
:1003A00019F118F4813439F069C08334B1F184341F
:1003B00009F44CC063C041110CC02BB381E090E044
:1003C00002C0880F991F6A95E2F7809582238BBB44
:1003D00055C02BB381E090E002C0880F991F6A9549
:1003E000E2F7822B8BBB4AC041110CC028B381E0DD
:1003F00090E002C0880F991F6A95E2F780958223EA
:1004000088BB3CC028B381E090E002C0880F991FF0
:100410006A95E2F7822B88BB31C041110CC025B32D
:1004200081E090E002C0880F991F6A95E2F78095FD
:10043000822385BB23C025B381E090E002C0880FF2
:10044000991F6A95E2F7822B85BB18C041110CC039
:1004500022B381E090E002C0880F991F6A95E2F70D
:100460008095822382BB0AC022B381E090E002C063
:10047000880F991F6A95E2F7822B82BB80E008956E
:10048000823421F118F4813439F06EC08334C1F123
:10049000843409F44FC068C02BB381E090E0062E8D
:1004A00002C0880F991F0A94E2F7382F3095232352
:1004B0002BBB29B330E08223932302C09595879507
:1004C0006A95E2F7FA01808380E0089528B381E01D
:1004D00090E0062E02C0880F991F0A94E2F7382F89
:1004E0003095232328BB26B330E08223932302C018
:1004F000959587956A95E2F7FA01808380E00895E3
:1005000025B381E090E0062E02C0880F991F0A945F
:10051000E2F7382F3095232325BB23B330E0822325
:10052000932302C0959587956A95E2F7FA01808337
:1005300080E0089522B381E090E0062E02C0880F8B
:10054000991F0A94E2F7382F3095232322BB20B35A
:1005500030E08223932302C0959587956A95E2F750
:10056000FA01808380E0089581E00895F894FFCF38
:00000001FF
