S01800004C454420737175656E63652056312E302E737265631E
S11300000C942A000C9434000C9434000C943400A6
S11300100C9434000C9434000C9434000C9434008C
S11300200C9434000C9434000C9434000C9434007C
S11300300C9434000C9434000C9434000C9434006C
S11300400C9434000C9434000C9434000C9434005C
S11300500C94340011241FBECFE5D8E0DEBFCDBF21
S11300600E9468010C9450020C94000060E081E44A
S11300700E94420161E081E40E94420162E081E465
S11300800E94420163E081E40E94420160E084E452
S11300900C945D01CF93DF931F92CDB7DEB7198225
S11300A0AE014F5F5F4F60E084E40E94600189818C
S11300B0813009F0E3C060E081E40E944B01898152
S11300C0813041F4AE014F5F5F4F60E084E40E94F1
S11300D06001F5CF8981811108C0AE014F5F5F4F88
S11300E060E084E40E946001F5CF8130D1F461E0E6
S11300F081E40E944B018981813041F4AE014F5F5C
S11301005F4F60E084E40E946001F5CF8981811132
S113011008C0AE014F5F5F4F60E084E40E9460015D
S1130120F5CF8130D1F462E081E40E944B018981F2
S1130130813041F4AE014F5F5F4F60E084E40E9480
S11301406001F5CF8981811109C0AE014F5F5F4F16
S113015060E084E40E946001F5CF89818130D1F4AC
S113016063E081E40E944B018981813041F4AE0156
S11301704F5F5F4F60E084E40E946001F5CF8981A6
S1130180811109C0AE014F5F5F4F60E084E40E94BB
S11301906001F5CF89818130D1F460E081E40E946F
S11301A054018981813041F4AE014F5F5F4F60E0BB
S11301B084E40E946001F5CF8981811109C0AE01F8
S11301C04F5F5F4F60E084E40E946001F5CF898156
S11301D08130D1F461E081E40E945401898181304D
S11301E041F4AE014F5F5F4F60E084E40E94600120
S11301F0F5CF8981811109C0AE014F5F5F4F60E087
S113020084E40E946001F5CF89818130D1F462E0F9
S113021081E40E9454018981813041F4AE014F5F31
S11302205F4F60E084E40E946001F5CF8981811111
S113023009C0AE014F5F5F4F60E084E40E9460013B
S1130240F5CF89818130D1F463E081E40E945401C7
S11302508981813041F4AE014F5F5F4F60E084E4F7
S11302600E946001F5CF8981811108C0AE014F5F02
S11302705F4F60E084E40E946001F5CF0F90DF914E
S1130280CF91089541E00E946D0191E0811101C078
S113029090E0892F089541E00E94B50191E0811119
S11302A001C090E0892F089540E00E94B50191E0DB
S11302B0811101C090E0892F089540E00C946D01F4
S11302C00E94FD0191E0811101C090E0892F089501
S11302D00E9436000E944A00FDCF8234C1F018F417
S11302E0813431F040C0833409F1843471F13BC06E
S11302F02AB381E090E001C0880F6A95EAF74111C2
S113030003C08095822301C0822B8ABB2CC027B3F3
S113031081E090E001C0880F6A95EAF7411103C0BB
S11303208095822301C0822B87BB1DC024B381E04A
S113033090E001C0880F6A95EAF7411103C08095E7
S1130340822301C0822B84BB0EC021B381E090E0E4
S113035001C0880F6A95EAF7411103C08095822392
S113036001C0822B81BB80E008958234C1F018F46F
S1130370813431F040C0833409F1843471F13BC0DD
S11303802BB381E090E001C0880F6A95EAF7411130
S113039003C08095822301C0822B8BBB2CC028B361
S11303A081E090E001C0880F6A95EAF7411103C02B
S11303B08095822301C0822B88BB1DC025B381E0B8
S11303C090E001C0880F6A95EAF7411103C0809557
S11303D0822301C0822B85BB0EC022B381E090E052
S11303E001C0880F6A95EAF7411103C08095822302
S11303F001C0822B82BB80E00895FA01823431F17E
S113040090F4813409F04AC02BB381E090E0062EC9
S113041002C0880F991F0A94E2F7382F30952323DE
S11304202BBB29B330C0833401F18434B9F522B332
S113043081E090E0062E02C0880F991F0A94E2F72B
S1130440382F3095232322BB20B31DC028B381E06D
S113045090E0062E02C0880F991F0A94E2F7382F05
S11304603095232328BB26B30EC025B381E090E04A
S1130470062E02C0880F991F0A94E2F7382F309590
S1130480232325BB23B330E08223932302C0959515
S113049087956A95E2F7808380E0089581E0089566
S10704A0F894FFCFFA
S9030000FC
